:020000040800F2
:1000000050CF002045010008B1570008434A0008BE
:10001000AD570008C90E0008F56800080000000090
:1000200000000000000000000000000075650008EE
:10003000090F000800000000B357000877650008AA
:100040005F0100085F0100085F0100085F01000810
:100050005F0100085F0100085F0100085F01000800
:100060005F0100085F0100081D0F00085F01000824
:100070005F0100085F0100085F0100085F010008E0
:100080005F0100085F0100085F0100085F010008D0
:100090005F0100085F0100085F0100085F010008C0
:1000A0005F0100085F0100085F0100085F010008B0
:1000B000616600085F0100085F0100085F01000839
:1000C0005F0100085F0100085F0100085F01000890
:1000D0005F0100085F0100085F0100085F01000880
:1000E0005F0100085F0100085F0100085F01000870
:1000F0005F0100085F0100085F0100085F01000860
:100100005F0100085F0100085F0100085F0100084F
:100110005F0100085F0100085F0100085F0100083F
:100120005F0100085F0100085F010008CD0E0008B4
:10013000DFF80CD000F0FCFB00480047B596000843
:1001400050CF00200648804706480047FEE7FEE7FC
:10015000FEE7FEE7FEE7FEE7FEE7FEE7FEE7FEE777
:100160000966000831010008202A04DB203A21FA40
:1001700002F00021704721FA02F3D040C2F12002C0
:10018000914008431946704740EA01039B0703D09A
:1001900009E008C9121F08C0042AFAD203E011F8C6
:1001A000013B00F8013B521EF9D27047D2B201E088
:1001B00000F8012B491EFBD270470022F6E710B56C
:1001C00013460A4604461946FFF7F0FF204610BDC5
:1001D000421E12F8013F002BFBD111F8013B02F83F
:1001E000013B002BF9D17047034611F8012B00F8B1
:1001F000012B002AF9D118467047000070B50F4D49
:1002000000B92868002412E00A4602E09E4203D0AA
:10021000521C1378002BF9D1DAB2224305D02BB14E
:1002200024B1002100F8011B04E00446401C0678BC
:10023000002EE9D12860204670BD000064770020C0
:100240000FB400B58DB010A909900B9000914FF03C
:10025000FF300A9000200C90054806900548079052
:100260006A4609A80F9900F0D7FA0DB05DF814FBA3
:1002700035080008530800082DE9FF5F1D464FF0C0
:10028000FF3BD5E9014691465F464FF00008A9695A
:100290007F1C01988847296A824688470028F6D142
:1002A000BAF1FF3F0CD024F4C064002E19DD6006C3
:1002B00014D5BAF12B0F09D0BAF12D0F0ED103E0EE
:1002C000584604B0BDE8F09F44F48064A9697F1CDF
:1002D00001988847761E8246002E02DDBAF1300F63
:1002E00003D0B9F1000F26D032E0A969761E44F49C
:1002F00000747F1C019888478246002E05DDBAF104
:10030000780F06D0BAF1580F03D0B9F1000F10D012
:100310001EE0B9F1000F02D0B9F1100F18D1A96990
:10032000761E24F400747F1C0198884782461020B2
:1003300002E0082000E00A20814609E008FB0908E5
:10034000A969761E44F400747F1C01988847824690
:10035000002E05DD4946504600F049FA0028EDDA46
:10036000E96901988847A00502D46FF00100A8E769
:10037000E00725D1600613D5600502D5C8F100005D
:1003800000E0404629680A1D2A600968220501D557
:10039000087015E0220701D5088011E008600FE021
:1003A0002868011D29600068210502D580F80080B9
:1003B00006E0210702D5A0F8008001E0C0F8008027
:1003C00038467EE72DE9FE4F804681EA0300C00FE4
:1003D0000C46009021F0004123F00045B8EB0200EC
:1003E000A94105D24046214690461C460B4602468E
:1003F00023F00040104347D0270DC7F30A00C3F392
:100400000A510290401A019040286BDAC3F313009E
:1004100040F4801B0098924620B10023D2EB030ADF
:1004200063EB0B0B01985946C0F14002504600F0B7
:10043000BDF906460D4650465946019A00F0C5F9E9
:1004400010EB08006141002487EA115284EAE77347
:100450001A4340D0009A62B3019A012A4FEA075228
:1004600015DC001B61EB02014FF0004202EA07526B
:10047000CDE90042001C41F5801132462B4600F0C8
:1004800008FA03B0BDE8F08F40462146F9E7001BAB
:1004900061EB0201001C41F5801300185B4120183C
:1004A000A2F5001747EB030140EAD570B6196D417C
:1004B00011E06D084FEA360645EAC0754FEA07526B
:1004C000001B61EB0201001C41F5801149084FEA55
:1004D00030000019514132462B4603B0BDE8F04FC1
:1004E00000F0C8B90098012240000023D0EB0202BE
:1004F00063EBE073009821464FEAE074B8EB00002C
:1005000061EB0401E9E783F000435BE781F0004120
:1005100058E72DE9FE4F81EA030404F0004421F07E
:10052000004100944FF0000B23F0004350EA010417
:100530005ED052EA03045BD0C3F30A54C1F30A55F8
:100540002C44A4F2F3340194A0FB0254C1F3130130
:1005500041F48011C3F3130343F4801301FB0244FD
:1005600000FB034E840A970A44EA815447EA835702
:10057000A4FB076802958D0A05FB07854FEA932CBB
:1005800004FB0C542705029D4FEA065847EA16372C
:10059000B5EB08056EEB070C870E920E47EA811744
:1005A00042EA8312A7FB0201B6EB0B0164EB0004E5
:1005B0002B0D43EA0C335E1844EB1C50DA465146CF
:1005C000E7FB0201C5F313044FEA0B3343EA14536C
:1005D0004FEA0432019C43EA0603A4F10C0402949E
:1005E000009CCDE900B400F054F903B0BDE8F08FF1
:1005F00000200146F9E72DE9F04D81EA030404F0FB
:10060000004B21F0004514464FF0000A23F0004152
:1006100050EA050220D054EA01021DD0C5F30A5762
:100620000246C5F31303C1F31300C1F30A5640F4A5
:10063000801543F48013A7EB0608101BD64608F27A
:10064000FD3873EB050002D308F1010801E09218B0
:100650005B41B8F1000F03DA00200146BDE8F08DE0
:1006600000204FF48011064684460EE0171B73EB02
:10067000050705D3121B63EB050306434CEA010C87
:1006800049084FEA300092185B4150EA0107EDD16A
:1006900052EA030012D082EA040083EA050108430B
:1006A00005D0101BAB4106D20122002306E0002238
:1006B0004FF0004302E06FF0010253101AEB060006
:1006C0004CEB085110EB0A0041EB0B01BDE8F04D7B
:1006D00000F0D0B80EB5C10F80EAE0700844CA0738
:1006E000002140F233438DE80E000A460B4600F02D
:1006F000D0F803B000BD0EB540F2334102910021A5
:10070000CDE900110A460B4600F0C3F803B000BD66
:1007100070B5C1F30A5201F000450024C1F3130182
:1007200040F2FF3341F480119A4201DA002070BD9B
:1007300040F233439A42A2F2334203DC5242FFF7C3
:1007400013FD00E090402C43F1D0404270BDC1F356
:100750000A5210B5C1F3130140F2FF3341F4801186
:100760009A4201DA002010BD40F233439A42A2F2CD
:10077000334203DC5242FFF7F7FC10BD904010BD3E
:1007800030B50B46014600202022012409E021FA61
:1007900002F59D4205D303FA02F5491B04FA02F55E
:1007A0002844151EA2F10102F1DC30BD202A04DB31
:1007B000203A00FA02F1002070479140C2F1200374
:1007C00020FA03F3194390407047202A06DBCB1729
:1007D000203A41FA02F043EAE07306E041FA02F3FC
:1007E000D040C2F1200291400843194670473A2890
:1007F00000D2303820F02002412A01D3A2F1370084
:10080000884201D34FF0FF30704700000268114466
:100810001378016018467047D1600449516104495A
:10082000116200211161114600F09AB80D0800080C
:1008300055090008426842B1016811F8013B23B133
:10084000521EC0E90012184670470121C160881E7F
:10085000704742685AB1C368016843B983688B42E4
:1008600005D0491E521CC0E90012002070474FF00D
:10087000FF30704710B5141E73F1000408DA401CF5
:1008800041F1000192185B411A4301D120F00100AF
:1008900010BD2DE9F04D92469B4611B1B1FA81F29F
:1008A00002E0B0FA80F220329046FFF77FFF044664
:1008B0000F4640EA0A0041EA0B0153465A460843F4
:1008C00013D0114653EA010019D0C8F14002504636
:1008D000FFF74AFC05460E46504659464246FFF78A
:1008E00065FF084305D0012004E020463946BDE8F5
:1008F000F08D0020054346EAE0762C4337430A9802
:100900006305E40AA0EB08000022FD0A44EA47540C
:100910000A3002D500200146E9E7010510196941B6
:10092000DDE9084500196941BDE8F04DA2E7000086
:10093000064C074D06E0E06840F0010394E807002C
:1009400098471034AC42F6D3FFF7F6FB80AB0008B3
:10095000A0AB0008C0B24FF4F05100F097B900000E
:100960002DE9F34F8BB04FF0000801F10C000C465D
:100970004FF0010B46460DF1080A01906269012112
:1009800001989047051E2DD0252D2CD0216A88472F
:10099000C0B16269012101989047216A8847002807
:1009A000F7D1411E62690198904700E0761CA16969
:1009B0000B988847216A88470028F7D1E1690B988E
:1009C0008847DBE7A1690B9888470746A84201D111
:1009D000761CD3E7E1690B9888477F1C02D1B8F1F8
:1009E000000F6FD046E1002762693D463946019805
:1009F00090472A2804D16269012101989047012576
:100A0000DFF884926269012101989047A0F13001DA
:100A10000A290AD24F45E5DC07EB870100EB4107C5
:100A2000303FDFD445F01005ECE7E90601D46FF064
:100A300000476C280AD04C2814D0682815D06A28A2
:100A40000DD074281CD07A281AD01DE062690121CB
:100A5000019890476C2802D045F0040514E045F059
:100A600002050DE045F020050AE0626901210198C8
:100A70009047682802D045F0080505E045F4006578
:100A80006269012101989047C4E9015765283DD06A
:100A900019DC58287AD00CDC452837D004DC25280E
:100AA00026D0412831D131E046282FD047282CD1FB
:100AB0002CE05B2877D0612828D063287CD064287C
:100AC00023D15AE0D0E06F2848D008DC66281DD03A
:100AD00067281BD0692821D06E2816D127E07028FE
:100AE00045D0732868D0752847D078280DD14DE0BF
:100AF000A1690B988847054625283FF469AFE1694D
:100B00000B9888476D1C3FF46AAFB3E023466A46F2
:100B10006FF001000B99AFF300809EE045F04000BC
:100B20006060A80723464FF0000236D43EE0E80795
:100B30007FF447AF2068011D21600068290501D5B9
:100B400006701BE7290701D5068017E7A90703D51B
:100B5000F117C0E9006111E706600FE745F04000BA
:100B60006060A80723464FF0080216D41EE040F646
:100B70000E0125EA0100606016E045F0400060606B
:100B8000A80723464FF00A0207D40FE045F04000C3
:100B90006060A80708D5234610226FF001000B996A
:100BA000AFF3008059E007E0234610226FF0010008
:100BB0000B99FFF761FB50E04FF000094F464B46A1
:100BC000632802D05B2806D040E0E80601D401206B
:100BD000A06001273AE062690121019890475E28F0
:100BE00005D14FF001096269494601989047216992
:100BF00039B900210A46534643F82120491C0829E7
:100C0000FADBB0B3216969B9C11700EBD1625311A6
:100C10000AEB830122F01F02821A01200B68904028
:100C200003430B6062690121019890475D28E8D178
:100C3000B9F1000F09D00020514651F82020D243CD
:100C400041F82020401C0828F7DB02AB2246009721
:100C50006FF001000B99AFF3008000280CDA401C04
:100C600008D1BBF1000F05D04FF0FF300DB0BDE84B
:100C7000F08FFFE74046F9E7E90701D108F10108E5
:100C800006444FF0000B79E6CCCCCC0C7F2801D980
:100C9000002208E0064A02EB5002C007127800D199
:100CA000120902F00F020120904008407047000036
:100CB00040AB000870B58D1810F8014B14F003021A
:100CC00001D110F8012B231106D110F8013B03E0EC
:100CD00010F8016B01F8016B521EF9D1ABB110F89D
:100CE000012B04F00C048A1A0C2C03D0A2EB841202
:100CF0009B1C08E010F8014BA2EB0422F8E712F865
:100D0000014B01F8014B5B1EF9D5A942D4D3002059
:100D100070BD70B5044600252068806800F00100B1
:100D200018B32068806820F001002168886001F015
:100D300055FD054613E001F051FD401B02280ED978
:100D40002068806800F0010048B1A06A40F01000FF
:100D5000A062E06A40F00100E062012070BD2068FE
:100D6000806800F001000028E5D10020F6E70000CF
:100D700038B504460025002000902068806800F007
:100D8000010078BB2068806840F00100216888601D
:100D9000194800681949B0FBF1F0009002E0009892
:100DA000401E009000980028F9D101F017FD05467B
:100DB00019E001F013FD401B022814D92068806857
:100DC00000F0010078B9A06A40F01000A062E06A6B
:100DD00040F00100E06200BF002084F8240000BF62
:100DE000012038BD05E02068806800F0010000287F
:100DF000DFD00020F5E700004C77002040420F00D4
:100E000010B504462146024802F02EFF10BD000036
:100E10005C78002010B5044802F039FF042801D0A6
:100E2000012010BD0020FCE75C78002010B50024F4
:100E300000F014F8012801D0012010BD064802F08E
:100E400038FF044634B94FF40061034802F0C4FD92
:100E500000B101242046F0E75C78002008B50120AD
:100E600000909DF8000008BD2DE9F84304460D46AA
:100E700016461F464FF0000833462A4621460548CD
:100E8000009703F001F808B14FF001084046BDE8B3
:100E9000F88300005C7800202DE9F84304460D46F5
:100EA00016461F464FF0000833462A46214605489D
:100EB000009703F035F908B14FF001084046BDE84E
:100EC000F88300005C78002000BFFEE710B5024800
:100ED00000F0FEFC10BD0000E078002030B590F876
:100EE00040500124AC40C56B6C600468636044688A
:100EF000102C04D10468A2600468E16003E0046877
:100F0000A1600468E26030BD704701B502E000985E
:100F1000401E009000980028F9D108BD10B508487F
:100F2000006800F0100038B1012006490870102058
:100F30000349086001F094FA102001F093FA10BD03
:100F40001404014030000020704730B504460D46BF
:100F500000222946204600F001F830BDF0B50346D6
:100F6000012500241148407A01281CDC00200F4E86
:100F7000767A0E4FB8553846467A001D40F826302E
:100F8000001F467A083082553E46707A461C7E72B3
:100F9000044604F1300008703A2048702F20887011
:100FA0000020C87000252846F0BD000040CB00207E
:100FB00070B50446B3F5804F13D1D1E9000540EA7E
:100FC00005108D6840EA05208D6928438D8940EA27
:100FD000054054F82250064E3540284344F822007C
:100FE00003E06FF0704044F82200002070BD000064
:100FF0000000F0CF70B50246086852F8200020F0DB
:1010000001000E6842F826008868082801D14023B4
:1010100000E00023486818438E683043CE683043B0
:101020000E6930434E693043CE6930430E6A304317
:101030004E6A30438E6A3043CE6A30430E6B40EACC
:10104000060488690443486B0443074D45F48065F2
:1010500045F4E025086852F82000A84320430E68B4
:1010600042F82600002070BD7FFB080010B5034643
:10107000D1E9000440EA04108C6840EA04208C891D
:1010800040EA0444088A401E44EA0054087D801E59
:1010900044EA00608C692043541C53F8244004F057
:1010A00040442043541C43F82400002010BD00009D
:1010B0002DE9F04788B02F4C06A805F05DFD00280B
:1010C00053D0BDF81A00FFF716FB0546D4E90273AA
:1010D0003A46FFF71EFA81468A46BDF81800FFF728
:1010E0000AFB0546D4E900733A46FFF712FA4A466E
:1010F0005346CDE90001FFF765F9CDE90201D4E9D6
:1011000004532A46FFF75EF9CDE90401FFF71FFB00
:1011100080B2ADF81C00BDF81A00FFF7ECFA0546E6
:10112000D4E908733A46FFF7F4F981468A46BDF8D8
:101130001800FFF7E0FA0546D4E906733A46FFF7D0
:10114000E8F94A465346CDE90001FFF73BF9CDE9FE
:101150000201D4E90A532A46FFF734F9CDE9040124
:10116000FFF7F5FA80B2ADF81E00079808B0BDE8A9
:10117000F087000000000020F8B50446002600209B
:10118000009000BF94F82400012801D10220F8BD8E
:10119000012084F8240000BF2046FFF7BAFD064670
:1011A000002E6CD1A06A20F4885040F00200A062AA
:1011B000022001F077FF35490968B1FBF0F04000EB
:1011C000009002E00098401E009000980028F9D19D
:1011D0002046FFF7CDFD2068806840F008002168B8
:1011E000886001F0FBFA054616E001F0F7FA401BB3
:1011F0000A2811D92068806800F0080060B1A06A50
:1012000020F0020040F01000A06200BF002084F82F
:10121000240000BF0120BAE72068806800F00800C1
:101220000028E2D12068806840F0040021688860CE
:1012300001F0D4FA054616E001F0D0FA401B0A2866
:1012400011D92068806800F0040060B1A06A20F025
:10125000020040F01000A06200BF002084F82400CB
:1012600000BF012093E72068806800F00400002898
:10127000E2D1A06A20F0020040F00100A06200BFAD
:10128000002084F8240000BF304680E74C7700201F
:1012900038B5024600230020009000BF92F82400D9
:1012A000012801D1022038BD012082F8240000BFAE
:1012B0004868072812D21068406B0C79641E04EB52
:1012C00084051F24AC40A0430D796D1E05EB8505F8
:1012D0000C68AC4020431468606327E048680D2820
:1012E00012D21068006B0C79E41F04EB84051F24F4
:1012F000AC40A0430D79ED1F05EB85050C68AC40B3
:1013000020431468206311E01068C06A0C790D3C1A
:1013100004EB84051F24AC40A0430D790D3D05EB83
:1013200085050C68AC4020431468E06208680A2810
:1013300012D31068C0680C780A3C04EB44050724FB
:10134000AC40A0430D780A3D05EB45058C68AC40E8
:1013500020431468E0600FE0106800690C7804EB2B
:1013600044050724AC40A0430D7805EB45058C6887
:10137000AC402043146820610868102802D0086837
:10138000112827D1174C1068A0421ED11068806820
:1013900000F40000F0B91068806840F400001468A0
:1013A000A0600868102815D10F4800680F4CB0FBEA
:1013B000F4F000EB80004000009002E00098401E36
:1013C000009000980028F9D104E0906A40F02000D5
:1013D0009062012300BF002082F8240000BF18465D
:1013E00061E70000002401404C77002040420F00DC
:1013F00001460868C06C70472DE9F041044600279B
:1014000000250026A84614B90120BDE8F081A06897
:1014100010B1207D00B100BFA06A30B90020E062A9
:1014200084F82400204600F097F82046FFF771FC6E
:101430000746A06A00F01000002873D1002F7ED16B
:10144000A06A20F4885040F00200A0623F4AD4E92C
:101450000001904208D1E069B0F5402F02D14FF46D
:10146000002002E0E06900E0E0690143207B41EAFE
:1014700040000643A068B0F5807F02D0A068012834
:1014800002D14FF4807000E000200543207D012848
:1014900011D1207B38B9A069401E4FF4006141EAA8
:1014A0004030054307E0A06A40F02000A062E06AF7
:1014B00040F00100E0622068406820F46940284361
:1014C00021684860206880682149084030432168CD
:1014D0008860A068B0F5807F02D0A068012802D1A2
:1014E0004FF4807000E00020B0F5807F03D1208AA7
:1014F000401E4FEA00582068C06A20F4700040EA9D
:1015000008002168C8622068806812490840B0421B
:1015100009D10020E062A06A20F0020040F0010042
:10152000A06211E00BE0A06A20F0020040F0100081
:10153000A062E06A40F00100E062012704E0A06AD6
:1015400040F01000A062012738465EE7003C0140F1
:10155000FDF7E1FFFE0E1FFF10B586B00446002028
:10156000029003900490059028492068884223D176
:1015700000BF2748806940F400702549886108460B
:10158000806900F40070019000BF00BF00BF0846F2
:10159000806940F0100088610846806900F0100002
:1015A000019000BF00BF102002900320039002A909
:1015B000184800F065FF26E017492068884222D1CC
:1015C00000BF1348806940F4806011498861084673
:1015D000806900F48060019000BF00BF00BF084632
:1015E000806940F0040088610846806900F00400CA
:1015F000019000BF00BF042002900320039002A9C5
:10160000064800F03DFF06B010BD00000024014078
:101610000010024000100140002801400008014075
:10162000F8B504460D46002600200090002701F082
:10163000D5F806462068806800F4807050B1A06A32
:1016400040F02000A06200BF002084F8240000BF0A
:101650000120F8BD2068406800F4807020BB20683D
:10166000C06A00F47000F8B917E0681CA8B125B191
:1016700001F0B4F8801BA8420FD92068006800F080
:10168000020050B9A06A40F00400A06200BF002030
:1016900084F8240000BF0320DBE72068006800F026
:1016A00002000028E1D053E0022001F0FBFC3849A1
:1016B0000968B1FBF0F021680969364A114091B917
:1016C0002168C9689211114069B921680969324AD3
:1016D000114031B92168C9689211114009B914212A
:1016E00017E0292115E0216809692B4A114021B929
:1016F0002168C9689211114041B121680969274ADE
:10170000114029B92168C968114009B9542100E084
:10171000FC2100FB01F718E0681C98B125B101F02D
:101720005DF8801BA8420DD90098B8420AD2A06A81
:1017300040F00400A06200BF002084F8240000BF35
:10174000032086E70098401C00900098B842E3D33D
:101750006FF0120021680860A06A40F40070A06277
:101760002068806800F46020B0F5602F0DD1207BE8
:1017700058B9A06A20F48070A062A06A00F480507A
:1017800018B9A06A40F00100A062002061E70000E3
:101790004C77002024499224922449124992240033
:1017A00070B50446002500BF94F82400012801D13B
:1017B000022070BD012084F8240000BF2046FFF7FE
:1017C000D7FA0546002D77D1A06A40F2012188435F
:1017D00040F48070A0623C492068884208D13B48B0
:1017E000006800F4702008B9012002E0002000E049
:1017F000012078B1A06A20F48010A06220684068BF
:1018000000F4806000B3A06A20F4005040F48050DF
:10181000A06219E0A06A40F48010A0622B49091F61
:101820002068884203D028492068884204D127488C
:10183000006800F4806000E0002028B1A06A20F475
:10184000005040F48050A062A06A00F4805020B1A3
:10185000E06A20F00600E06201E00020E06200BFE4
:10186000002084F8240000BFC01E216808602068A2
:10187000806800F46020B0F5602F16D1124920680E
:10188000884208D11148006800F4702008B901208E
:1018900002E0002000E0012038B12068806840F4B8
:1018A000A000216888600CE006E02068806840F4B1
:1018B00080102168886004E000BF002084F82400C4
:1018C00000BF284675E700000028014004240140BD
:1018D00070B50446E06B05682068066894F840100F
:1018E000042088402840002875D006F00400002815
:1018F000FAD02068006800F0200028B9206800684D
:1019000020F0040021680860D5492068884254D935
:10191000D34978392068884201D1042049E0D04970
:1019200064392068884201D1402042E0CC495039D6
:101930002068884201D100153BE0C9493C39206844
:10194000884202D14FF4804033E0C54928392068ED
:10195000884202D14FF480202BE0C149143920681D
:10196000884202D14FF4800023E0BD4920688842BC
:1019700001D1C0041DE0BB492068884201D1042088
:1019800017E0B84914312068884201D1402010E0A6
:10199000B44928312068884201D1001509E0B149D5
:1019A0003C312068884202D14FF4804001E04FF47E
:1019B0008020AC49091F086054E0A94978392068A3
:1019C000884201D104204AE0A54964392068884250
:1019D00002D1402043E04CE0A149503920688842C0
:1019E00001D100153BE09E493C392068884202D174
:1019F0004FF4804033E09A4928392068884202D168
:101A00004FF480202BE0964914392068884202D197
:101A10004FF4800023E092492068884201D1C0043D
:101A20001DE090492068884201D1042017E08D49CB
:101A300014312068884201D1402010E089492831C2
:101A40002068884201D1001509E086493C312068B0
:101A5000884202D14FF4804001E04FF48020804959
:101A600080394860E06A002802D02046E16A884751
:101A7000F4E094F84010022088402840002871D0FB
:101A800006F002000028FAD02068006800F020006C
:101A900040B92068006820F00A0021680860012031
:101AA00084F821006E492068884254D96C497839FD
:101AB0002068884201D1022049E0694964392068E0
:101AC000884201D1202042E065495039206888428F
:101AD00001D140153BE062493C392068884202D17F
:101AE0004FF4005033E05E4928392068884202D123
:101AF0004FF400302BE05A4914392068884202D153
:101B00004FF4001023E056492068884201D1800438
:101B10001DE054492068884201D1022017E0514954
:101B200014312068884201D1202010E04D4928312D
:101B30002068884201D1401509E04A493C312068BB
:101B4000884202D14FF4005001E04FF40030454983
:101B5000091F086054E0424978392068884202D160
:101B600002204AE057E03E4964392068884201D1AA
:101B7000202042E03A4950392068884201D140157E
:101B80003BE037493C392068884202D14FF400508D
:101B900033E0334928392068884202D14FF40030BD
:101BA0002BE02F4914392068884202D14FF40010ED
:101BB00023E02B492068884201D180041DE0294997
:101BC0002068884201D1022017E02649143120689C
:101BD000884201D1202010E0224928312068884223
:101BE00001D1401509E01F493C312068884202D1EB
:101BF0004FF4005001E04FF400301949803948603B
:101C000000BF002084F8200000BFA06A30B3204647
:101C1000A16A884722E094F84010082088402840B4
:101C2000E0B106F00800C8B12068006820F00E009E
:101C30002168086094F8401001208840E16B4860FA
:101C40000120A06384F8210000BF002084F8200058
:101C500000BF206B10B12046216B884770BD00008B
:101C600080000240080402400146002209B9012018
:101C700070471E4B086898420BD21D4B0868C01A6B
:101C80001423B0FBF3F08000086419480838C863D7
:101C90000AE0164B0868C01A1423B0FBF3F080006A
:101CA000086412480838C863022081F821000868D7
:101CB000026843F6F0708243D1E901031843CB6810
:101CC00018430B6918434B6918438B691843CB6958
:101CD000184302430868026000208863012081F8ED
:101CE0002100002081F8200000BFC1E70804024065
:101CF000080002402DE9F04104460E4615464FF01B
:101D0000000894F82100022809D00420A06300BF35
:101D1000002084F8200000BF0120BDE8F081206889
:101D2000006800F0200020B14FF48070A063012013
:101D3000F3E7002E52D1F9492068884201D10220F0
:101D40004AE0F64914312068884201D1202043E05E
:101D5000F24928312068884201D140153CE0EF4922
:101D60003C312068884202D14FF4005034E0EB4906
:101D700050312068884202D14FF400302CE0E7490E
:101D800064312068884202D14FF4001024E0E34916
:101D900078312068884201D180041DE0E049206844
:101DA000884201D1022017E0DD49143120688842C1
:101DB00001D1202010E0DA4928312068884201D181
:101DC000401509E0D6493C312068884202D14FF4E1
:101DD000005001E04FF40030074651E0CF49206841
:101DE000884201D104204AE0CC491431206888425D
:101DF00001D1402043E0C94928312068884201D1FF
:101E000000153CE0C5493C312068884202D14FF4BE
:101E1000804034E0C14950312068884202D14FF4FB
:101E200080202CE0BD4964312068884202D14FF403
:101E3000800024E0B94978312068884201D1C0048B
:101E40001DE0B7492068884201D1042017E0B44959
:101E500014312068884201D1402010E0B049283177
:101E60002068884201D1001509E0AD493C31206865
:101E7000884202D14FF4804001E04FF480200746B1
:101E800000F0ACFC8046DBE0A44978312068884251
:101E900055D9A34808380068A04A2168914201D169
:101EA00008214AE09D4A14322168914201D18021E3
:101EB00043E09A4A28322168914201D1C9143CE09A
:101EC000964A3C322168914202D14FF4004134E0FD
:101ED000924A50322168914202D14FF400212CE005
:101EE0008E4A64322168914202D14FF4000124E00D
:101EF0008A4A78322168914201D109051DE0884A59
:101F00002168914201D1082117E0854A14322168E5
:101F1000914201D1802110E0814A2832216891420A
:101F200001D1C91409E07E4A3C322168914202D1B4
:101F30004FF4004101E04FF40021084054E077489D
:101F400008380068754A2168914201D108214AE0A9
:101F5000724A14322168914201D1802143E06F4AD4
:101F600028322168914201D1C9143CE06B4A3C32CD
:101F70002168914202D14FF4004134E0674A503267
:101F80002168914202D14FF400212CE0634A64326F
:101F90002168914202D14FF4000124E05F4A783277
:101FA0002168914201D109051DE05D4A21689142F5
:101FB00001D1082117E05A4A14322168914201D117
:101FC000802110E0564A28322168914201D1C9147B
:101FD00009E0534A3C322168914202D14FF400415A
:101FE00001E04FF40021084098B194F8401001201E
:101FF0008840E16B4860A06B40F00100A0630120C5
:1020000084F8210000BF002084F8200000BF0120D8
:1020100083E6681CA0B12DB100F0E0FBA0EB080046
:10202000A8420DD9A06B40F02000A063012084F8E5
:10203000210000BF002084F8200000BF01206CE6D2
:10204000364978312068884204D935480838006814
:10205000384003E0314808380068384000283FF431
:1020600013AF002E72D12D4978312068884259D99A
:102070002A492068884201D102204AE027491431C8
:102080002068884201D1202043E02449283120687B
:10209000884201D140153CE020493C31206888420B
:1020A00002D14FF4005034E01C495031206888427E
:1020B00002D14FF400302CE0184964312068884286
:1020C00002D14FF4001024E014497831206888428E
:1020D00001D180041DE012492068884201D102200C
:1020E00017E00F4914312068884201D1202010E008
:1020F0000B4928312068884201D1401509E0084980
:102100003C312068884202D14FF4005001E04FF486
:1021100000300349091F086059E000000800024030
:102120000804024086492068884201D102204BE021
:10213000834914312068884201D1202044E080493D
:1021400028312068884202D140153DE043E07C49B7
:102150003C312068884202D14FF4005034E0784985
:1021600050312068884202D14FF400302CE074498D
:1021700064312068884202D14FF4001024E0704995
:1021800078312068884201D180041DE06D492068C3
:10219000884201D1022017E06A4914312068884240
:1021A00001D1202010E0674928312068884201D100
:1021B000401509E063493C312068884202D14FF460
:1021C000005001E04FF400305D49083948600120BB
:1021D00084F82100ADE05A4978312068884254D90A
:1021E00057492068884201D104204AE054491431FB
:1021F0002068884201D1402043E0514928312068BD
:10220000884201D100153CE04D493C3120688842AC
:1022100002D14FF4804034E049495031206888426F
:1022200002D14FF480202CE0454964312068884277
:1022300002D14FF4800024E041497831206888427F
:1022400001D1C0041DE03F492068884201D104202B
:1022500017E03C4914312068884201D1402010E049
:10226000384928312068884201D1001509E03549F4
:102270003C312068884202D14FF4804001E04FF4A5
:1022800080203049091F086053E02D4920688842AA
:1022900001D104204AE02A4914312068884201D142
:1022A000402043E0264928312068884201D10015AA
:1022B0003CE023493C312068884202D14FF4804001
:1022C00034E01F4950312068884202D14FF4802009
:1022D0002CE01B4964312068884202D14FF4800011
:1022E00024E0174978312068884201D1C0041DE0FC
:1022F00014492068884201D1042017E011491431A3
:102300002068884201D1402010E00E492831206821
:10231000884201D1001509E00A493C312068884211
:1023200002D14FF4804001E04FF480200449083985
:10233000486000BF002084F8200000BF00BFECE42C
:1023400008000240080402402DE9F04104460D4611
:1023500016461F464FF0000800BF94F820000128E1
:1023600002D10220BDE8F081012084F8200000BFE6
:1023700094F82100012817D1022084F821000020C0
:10238000A0632068006820F00100216808603B46D7
:10239000324629462046FEF7A1FD2068006840F03D
:1023A00001002168086006E000BF002084F82000DA
:1023B00000BF4FF002084046D4E7000070B5044665
:1023C00000F00CFA06462546681C10B10448007857
:1023D000054400BF00F002FA801BA842FAD370BD8A
:1023E0005877002000B585B000200190029003903E
:1023F00004901748006808B105B000BD01201449D9
:10240000086000BF1348406940F48070114948617A
:102410000846406900F48070009000BF00BF4FF68E
:1024200080700190022002900320049001A90A48C4
:1024300000F026F84CF6B3700190022002900320C1
:10244000049001A9054800F01BF800BFD4E7000084
:1024500044770020001002400018014000140140A1
:102460007047000010B5044604480068204020B1C1
:10247000024804602046FFF7F3FF10BD140401403A
:102480002DE9F847024600239C467BE14FF0010806
:1024900008FA03F4D1F8008008EA0400A0427DD1D4
:1024A000DFF8F4A2D1F80480A8EB0A09D0453AD0AD
:1024B00014DCB8F1030F50D009DCB8F1000F31D0B3
:1024C000B8F1010F1CD0B8F1020F49D120E0B8F1EA
:1024D000110F18D0B8F1120F42D11EE0B9F5881FC4
:1024E00025D006DCB9F5803F20D0B9F5801F37D163
:1024F0001AE0B9F5001F18D0B9F5041F30D117E064
:10250000D1F80CC02DE0D1F80C8008F1040C28E0C3
:10251000D1F80C8008F1080C23E0D1F80C8008F108
:102520000C0C1EE000BF00BF00BF00BF00BF00BF1B
:10253000D1F80880B8F1000F02D14FF0040C0BE085
:10254000D1F80880B8F1010F03D14FF0080C1461E5
:1025500002E04FF0080C546103E04FF0000C00E083
:1025600000BF00BFFF2801D8904601E002F1040837
:102570004646FF2802D84FEA830803E0A3F1080883
:102580004FEA88084746D6F800804FF00F0909FA4D
:1025900007F928EA09080CFA07F900E07AE048EAA6
:1025A0000908C6F80080D1F8048008F08058B8F116
:1025B000805F6FD100BFDFF8E481D8F8188048F061
:1025C0000108DFF8D891C9F81880C846D8F81880F3
:1025D00008F00108CDF8008000BF00BF4FEAB9380D
:1025E0004FEA930958F829504FEA83784FEA18794F
:1025F0004FF00F0808FA09F825EA0805DFF8A0816E
:10260000424502D14FF0000824E0DFF898814245AE
:1026100002D14FF001081DE0DFF88C81424502D164
:102620004FF0020816E0DFF88481424502D14FF0F6
:1026300003080FE0DFF87881424502D14FF004082B
:1026400008E0DFF87081424502D14FF0050801E053
:102650004FF006084FEA83794FEA197908FA09F82A
:1026600048EA0505DFF850814FEA930948F82950F8
:10267000D1F8048008F48038B8F5803F0BD1DFF83A
:102680003C81D8F8008048EA0008DFF83091C9F8AA
:1026900000800AE075E0DFF82481D8F8008028EA9D
:1026A0000008DFF81891C9F80080D1F8048008F418
:1026B0000038B8F5003F0ED1DFF8008108F10408BA
:1026C000D8F8008048EA0008DFF8F09009F1040922
:1026D000C9F800800DE0DFF8E48008F10408D8F8BC
:1026E000008028EA0008DFF8D49009F10409C9F84D
:1026F0000080D1F8048008F48018B8F5801F0ED14E
:10270000DFF8B88008F10808D8F8008048EA000827
:10271000DFF8A89009F10809C9F800800DE0DFF89A
:102720009C8008F10808D8F8008028EA0008DFF843
:102730008C9009F10809C9F80080D1F8048008F4E8
:102740000018B8F5001F0ED1DFF8708008F10C08F2
:10275000D8F8008048EA0008DFF8609009F10C0919
:10276000C9F800800DE0DFF8548008F10C08D8F8B3
:10277000008028EA0008DFF8449009F10C09C9F844
:1027800000805B1CD1F8008028FA03F8B8F1000F34
:102790007FF47CAEBDE8F887000011100010024005
:1027A00000080140000C01400010014000140140ED
:1027B00000180140001C01400800014000040140D5
:1027C000024693680B400BB1012000E000207047E7
:1027D0000AB1016101E00B04036170470148006820
:1027E000704700005077002070B504460CB90120F6
:1027F00070BD94F83D0028B9002084F83C002046C4
:1028000000F092F9242084F83D002068006820F050
:102810000100216808602068006840F400402168D9
:1028200008602068006820F400402168086000F01B
:1028300037FE05465C496068884206D85B48854299
:1028400001D2012007E0002005E05948854201D26D
:10285000012000E00020012800D1C9E75548B5FB60
:10286000F0F62068406820F03F003043216848605F
:102870004D496068884201D8701C07E04FF496709B
:1028800070434FF47A71B0FBF1F0401C2168096A83
:1028900021F03F010843216808624349606888428B
:1028A00014D8681E61684900B0FBF1F0401CC0F309
:1028B0000B00042801D204203DE0681E6168490035
:1028C000B0FBF1F0401CC0F30B0034E0A06838B955
:1028D000681E616801EB4101B0FBF1F0401C0AE0A9
:1028E000681E616801EBC10202EB0111B0FBF1F05F
:1028F000401C40F48040C0F30B0008B901201AE0EE
:10290000A06848B9681E616801EB4101B0FBF1F0B5
:10291000401CC0F30B000CE0681E616801EBC102B3
:1029200002EB0111B0FBF1F0401CC0F30B0040F4CE
:10293000804040F400402168C9694CF6FF72914321
:1029400008432168C861D4E9070108432168096880
:1029500021F0C001084321680860D4E9031008434E
:102960002168896848F2FF329143084321688860F2
:10297000D4E9050108432168C96821F0FF01084333
:102980002168C8602068006840F001002168086084
:1029900000202064202084F83D000020206384F87B
:1029A0003E0000BF24E70000A086010080841E00D6
:1029B00000093D0040420F002DE9F84304468946D6
:1029C00016461F46DDF82080FFF708FF054694F8FD
:1029D0003D0020287ED1192301225149204600952F
:1029E00002F0DEF810B10220BDE8F88300BF94F8D1
:1029F0003C00012801D10220F6E7012084F83C00C8
:102A000000BF2068006800F0010028B92068006855
:102A100040F00100216808602068006820F4006030
:102A200021680860212084F83D00102084F83E00D1
:102A30000020206466626785608D20853948E062E9
:102A40002B4642464946204602F01CF808B10120B8
:102A5000CAE700BF0020009020684069009020680D
:102A60008069009000BF00BF44E02A4641462046EE
:102A700002F03BF950B1206C042805D120680068B1
:102A800040F40070216808600120ADE7606A0078BA
:102A900021680861606A401C6062608D401E60852C
:102AA000208D401E208520684069C0F3800070B1F1
:102AB000208D60B1606A007821680861606A401CFE
:102AC0006062608D401E6085208D401E20852A46F4
:102AD000414600E022E0204602F034F850B1206C7C
:102AE000042805D12068006840F40070216808605F
:102AF000012079E7208D0028B7D12068006840F4D4
:102B0000007021680860202084F83D00002084F8CF
:102B10003E0000BF84F83C0000BF65E7022063E789
:102B2000020010000000FFFF10B586B00446002030
:102B3000029003900490059016492068884226D19F
:102B400000BF1548806940F00800134988610846B5
:102B5000806900F00800019000BF00BF4FF44060A2
:102B60000290122003900320059002A90B48FFF762
:102B700087FC00BF0848C06940F480000649C8616E
:102B80000846C06900F48000019000BF00BF06B095
:102B900010BD00000058004000100240000C014031
:102BA0002DE9F047044614B90120BDE8F08794F8F8
:102BB000350028B9002084F83400204600F092F84F
:102BC000022084F835002068C06940F6BF71884350
:102BD0002168C861022021680862606902284ED01D
:102BE000E06808B9102600E02026A068202800D858
:102BF00076003A492068884204D1042000F052FA55
:102C000005460BE036492068884204D1082000F0D0
:102C100049FA054602E000F063FC05462069B0F57C
:102C2000007F17D1E06850B1B000B5FBF0F000EBC9
:102C3000800041006069B1FBF0F0471D13E0F00037
:102C4000B5FBF0F000EB800041006069B1FBF0F0F3
:102C5000471D08E0B5FBF6F000EB8000410060691D
:102C6000B1FBF0F0471D0A20B7FBF0F707F00109B0
:102C7000A7EB09004FEA50084FEA092903E04FF09B
:102C800002084FF00009B8F1020F02D3B8F1FF0FAC
:102C900005D9A06B40F01000A063012085E72069F2
:102CA00040EA090040EA080021680862606840F4D0
:102CB0000060A1680843E1680843A16908432168EE
:102CC000C96940F6BF72914308432168C86100207A
:102CD000A063012084F83500002066E7003800403A
:102CE000003C004010B586B00446002002900390DE
:102CF000049005902049206888423AD100BF1F48BF
:102D0000C06940F480401D49C8610846C06900F4AC
:102D10008040019000BF00BF00BF0846806940F0BE
:102D2000080088610846806900F00800019000BF33
:102D300000BF00BF0846806940F010008861084667
:102D4000806900F01000019000BF00BF4FF43040D8
:102D5000029002200390059002A90948FFF790FB1A
:102D60004020029002200390059002A90548FFF739
:102D700087FB06B010BD0000003800400010024084
:102D8000000C0140001001402DE9F84304460F46B5
:102D90001546984607B115B90120BDE8F88300BF74
:102DA00094F83400012801D10220F6E7012084F8CC
:102DB000340000BF94F83500012806D000BF002081
:102DC00084F8340000BF0220E7E7032084F83500D0
:102DD0000020A063E7612068C06900F00706032EA9
:102DE00001D0052E0AD14FF6FF7000EA450020847D
:102DF0004FF6FF7000EA4500608401E02584658499
:102E00002068C6692068C06900F48060B0F5806FF2
:102E100005D02068C06940F480602168C8614346DD
:102E200001220221204601F08EFF68B1A06B40F024
:102E30000100A063012084F8350000BF002084F861
:102E4000340000BF0120A8E72FE0E0690088216876
:102E5000C860E069801CE061608C401E608443466D
:102E600001220221204601F06EFF68B1A06B40F004
:102E70000100A063012084F8350000BF002084F821
:102E8000340000BF012088E720688068C0F3C000DC
:102E900058B100BF0020009020688068009000BFFB
:102EA00000BFA06B40F00400A063608C0028CCD170
:102EB00006F4407020B106F44070B0F5807F14D164
:102EC000434600228021204601F03DFF68B1A06BFF
:102ED00040F00100A063012084F8350000BF00200D
:102EE00084F8340000BF012057E7012084F8350042
:102EF00000BF002084F8340000BF00BF4DE7000091
:102F0000034800680349097808440149086070478C
:102F1000507700205877002010B50848006840F02E
:102F2000100006490860032000F0A8F8002000F017
:102F300007F800F02BF8002010BD00000020024030
:102F400070B504460E4800784FF47A71B1FBF0F08A
:102F50000C490968B1FBF0F5284601F031FA08B1D7
:102F6000012070BD102C07D200222146501E00F017
:102F700047F80548046001E00120F2E70020F0E78F
:102F8000587700204C7700205477002008B500BF08
:102F90001148806940F001000F4988610846806946
:102FA00000F00100009000BF00BF00BF0846C069EC
:102FB00040F08050C8610846C06900F08050009021
:102FC00000BF00BF00BF0549486820F0E06040F046
:102FD0000070486000BF08BD0010024000000140C2
:102FE00001460846002809DB00F01F0301229A4031
:102FF00043099B0003F1E023C3F8002100BF7047A1
:103000002DE9F05F80460D461646002703F0FCFED2
:10301000074639462A46334601F00700C0F1070A41
:10302000BAF1040F02D94FF0040A01E0C0F1070A17
:10303000D14600F1040ABAF1070F02D24FF0000A9C
:1030400001E0A0F1030AD4464FF0010A0AFA09FA96
:10305000AAF1010A0AEA020A0AFA0CFA4FF0010B75
:103060000BFA0CFBABF1010B0BEA030B4AEA0B0466
:103070002146404603F0D0FEBDE8F09F00BF00F0BF
:103080000702064B19684FF6FF031940044B0B4328
:1030900043EA0221014B196000BF70470CED00E0CC
:1030A0000000FA052DE9F04385B0064642A30FCB98
:1030B00001AC0FC444A0006800904FF00008002548
:1030C00000270024A146042E36D004DC012E3BD07C
:1030D000022E6BD15FE0082E32D0102E66D13B4815
:1030E0004468006800F0807000B301A8C4F3834115
:1030F000475C04F4803070B134484068C0F340400D
:103100001DF8008004F4803040B13148B0FBF8F085
:1031100000FB07F502E02F4807FB00F52B4840684D
:1031200000F48000B0F5800F01D1A94603E06800EB
:103130000321B0FBF1F93AE000F0D2F9814636E024
:1031400000F0CEF9814632E02048046A04F4407071
:10315000B0F5807F05D104F0020010B14FF40049B2
:1031600018E004F44070B0F5007F07D11748406ABA
:1031700000F0020010B149F640490BE004F4407041
:10318000B0F5407F06D11148006800F4003008B166
:103190004FF224490BE000F093F90C494968C1F360
:1031A0008131491C4900B0FBF1F900E000BF00BFCC
:1031B000484605B0BDE8F083020304050607080988
:1031C0000A0B0C0D0E0F101001020000001002403F
:1031D00000127A0000093D00F8B5044600260025DB
:1031E000207800F0010000286BD000274348C06918
:1031F00000F0805070B900BF4048C06940F0805076
:103200003E49C8610846C06900F08050009000BF88
:1032100000BF01273A48006800F48070B0B9384810
:10322000006840F4807036490860FFF7D7FA064618
:1032300006E0FFF7D3FA801B642801D90320F8BD0C
:103240002F48006800F480700028F2D02B48006AF4
:1032500000F440752DB3A08800F44070A84220D03F
:103260002648006A20F440750120264908600020A5
:1032700008602248056205F0010090B1FFF7AEFA40
:10328000064608E0FFF7AAFA801B41F2883188421F
:1032900001D90320D3E71948006A00F00200002892
:1032A000F0D01648006A20F4407061680843134962
:1032B0000862012F04D10846C06920F08050C8611F
:1032C00000BF207800F00200022807D10B484068B8
:1032D00020F44040A168084308494860207800F085
:1032E0001000102807D10548406820F4800061696B
:1032F0000843024948600020A1E700000010024096
:10330000007000404004424270B504460D460CB9BE
:10331000012070BD5A48006800F00700A8420ED294
:103320005748006820F007002843554908600846C0
:10333000006800F00700A84201D00120E9E72078EA
:1033400000F0020002281DD1207800F004000428BB
:1033500005D14C48406840F4E0604A494860207814
:1033600000F00800082805D14648406840F4605045
:10337000444948604348406820F0F000A168084391
:1033800040494860207800F0010078B36068012867
:1033900006D13C48006800F4003090B90120B8E73D
:1033A0006068022806D13748006800F0007040B914
:1033B0000120AEE73348006800F0020008B90120A0
:1033C000A7E73048406820F00300616808432D49B2
:1033D0004860FFF703FA064609E0FFF7FFF9801B94
:1033E00041F28831884202D9032092E707E025485C
:1033F000406800F00C006168B0EB810FEDD120480F
:10340000006800F00700A8420ED91D48006820F0AF
:10341000070028431A4908600846006800F00700C2
:10342000A84201D0012074E7207800F004000428AD
:1034300007D11448406820F4E060E168084311496E
:103440004860207800F00800082808D10D4840683E
:1034500020F46050216940EAC1000A49486000F048
:103460003FF808494968C1F30311074A515CC84055
:103470000649086006480068FFF762FD002048E73B
:10348000002002400010024066AA00084C7700208D
:103490005477002001480068704700004C770020F6
:1034A00000B5FFF7F7FF04494968C1F30221034A59
:1034B000515CC84000BD00000010024076AA000820
:1034C00000B5FFF7E7FF04494968C1F3C221034A89
:1034D000515CC84000BD00000010024076AA000800
:1034E000F0B585B00FF26C0C9CE8E01001A8A0E8E4
:1034F000E0101CA52D680095002100220023002467
:103500000020194D696801F00C05F5B1042D02D0B9
:10351000082D19D101E0154819E001ADC1F383462A
:10352000AC5D01F4803555B10F4D6D68C5F3404574
:103530001DF805200D4D6543B5FBF2F302E00C4D7F
:1035400004FB05F3184602E000BF084800BF00BFB7
:1035500005B0F0BD02030405060708090A0B0C0DAF
:103560000E0F1010010200000010024000127A003D
:1035700000093D00F8B504460CB90120F8BD2078DB
:1035800000F00100002878D0F848406800F00C00F6
:1035900004280CD0F548406800F00C00082811D130
:1035A000F248406800F48030B0F5803F0AD1EF481F
:1035B000006800F4003000285FD0606800285CD10B
:1035C0000120DBE700BF6068B0F5803F06D1E74827
:1035D000006840F48030E549086028E0606858B928
:1035E000E248006820F48030E0490860084600683E
:1035F00020F4802008601AE06068B0F5A02F0BD19D
:10360000DA48006840F48020D8490860084600681D
:1036100040F4803008600AE0D448006820F480302C
:10362000D24908600846006820F48020086000BF86
:10363000606888B1FFF7D2F8054606E0FFF7CEF8DC
:10364000401B642801D9032098E7C848006800F4AB
:1036500000300028F2D010E0FFF7C0F8054606E081
:10366000FFF7BCF8401B642801D9032086E7BF4858
:10367000006800F400300028F2D1207800F0020049
:10368000022857D1B948406800F00C0050B1B74843
:10369000406800F00C00082818D1B448406800F4D5
:1036A000803098B9B148006800F0020020B120696C
:1036B000012801D0012061E7AC48006820F0F80043
:1036C000616940EAC100A949086033E02069E8B1B6
:1036D0000120A7490860FFF781F8054606E0FFF7DB
:1036E0007DF8401B022801D9032047E79F48006866
:1036F00000F002000028F2D09C48006820F0F8009A
:10370000616940EAC1009949086013E000209849C6
:103710000860FFF763F8054606E0FFF75FF8401B17
:10372000022801D9032029E79048006800F0020030
:103730000028F2D1207800F0080008282DD1A069D7
:10374000B8B101208B490860FFF748F8054606E04C
:10375000FFF744F8401B022801D903200EE78348F5
:10376000406A00F002000028F2D0012002F022F8A6
:1037700013E000207F490860FFF730F8054606E0B7
:10378000FFF72CF8401B022801D90320F6E6774802
:10379000406A00F002000028F2D1207800F0040016
:1037A000042873D100277148C06900F0805070B9B7
:1037B00000BF6E48C06940F080506C49C86108463F
:1037C000C06900F08050009000BF00BF01276A4828
:1037D000006800F48070B0B96748006840F48070F9
:1037E00065490860FEF7FAFF054606E0FEF7F6FFBA
:1037F000401B642801D90320C0E65F48006800F43C
:1038000080700028F2D000BFE068012806D1574838
:10381000006A40F001005549086227E0E06858B9A5
:103820005248006A20F00100504908620846006AC8
:1038300020F00400086219E0E06805280BD14B482D
:10384000006A40F00400494908620846006A40F0F6
:10385000010008620AE04548006A20F0010043497F
:1038600008620846006A20F00400086200BFE068B1
:10387000A0B1FEF7B3FF054609E0FEF7AFFF401B1E
:1038800041F28831884202D9032077E622E03748A6
:10389000006A00F002000028EFD012E0FEF79EFF61
:1038A000054608E0FEF79AFF401B41F28831884246
:1038B00001D9032062E62D48006A00F002000028CA
:1038C000F0D1012F05D12948C06920F08050274947
:1038D000C86100BFE069C8B32448406800F00C002C
:1038E000082860D0E069022848D1002020490866F5
:1038F000FEF774FF054606E0FEF770FF401B022846
:1039000001D903203AE61948006800F00070002849
:10391000F2D1206AB0F5803F07D11448406820F406
:103920000030A168084311494860D4E90801084300
:103930000E49496821F4741108430C49486001207C
:103940000B490866FEF74AFF054607E03DE0FEF733
:1039500045FF401B022801D903200FE603480068F9
:1039600000F000700028F2D02FE0000000100240AC
:10397000000042428004424200700040002014498E
:103980000866FEF72BFF054606E0FEF727FF401B03
:10399000022801D90320F1E50E48006800F000700C
:1039A0000028F2D111E0E069012800D1E6E50948DC
:1039B000466806F48031206A814204D106F4701111
:1039C000606A814201D00120D8E50020D6E50000E0
:1039D0000000424200100240F0B589B004460E4695
:1039E0000027032084F83400606C032820D0B6F54B
:1039F000805F04D1A06B40F08050A0631CE0B6F55E
:103A0000006F07D1204602F0DDFC0546A06B28437D
:103A1000A06311E03EB9204602F0A0FC0546A06B71
:103A20002843A06308E0A06B40F00060A06303E0BF
:103A3000A06B40F08050A063A06B38B1174821689C
:103A40008863012084F83400012713E06068039044
:103A5000A0680490E0680590069660690790A069E8
:103A6000089006A807C88DE80700206803A90EC9BA
:103A700001F0D9FE4FF40071206801F04FFF0546B8
:103A800035B1064821688863A06B2843A0630127ED
:103A9000012084F83400384609B0F0BDFF0540002D
:103AA00010B50246506E800F0870506EC0F38360F0
:103AB0004870506EC0F301608870506E000CC87082
:103AC000B2F86400000A087192F864004871906EC0
:103AD000000DC880906EC0F3034008726820805AC1
:103AE000C0F3C03048726820805AC0F380308872BA
:103AF0006820805AC0F34030C8726820805AC0F3F2
:103B00000030087300204873506C002836D16820BC
:103B1000805A8005030DD06E43EA90700861D06E24
:103B2000C0F3C2600875D06EC0F302604875D06EF5
:103B3000C0F342508875D06EC0F38240C875D06E15
:103B4000C0F3C23008760869401C50650B7E506D8A
:103B500003F007039B1C01249C4060435065087AD6
:103B600000F00F03012098409065D2E915035B0A2D
:103B70005843D0654FF40073136621E0506C012860
:103B800013D16820805C8006830AD06E43EA10401F
:103B900008610869401C83025365536DD3654FF477
:103BA00000739365936D13660AE02E48136898635B
:103BB000906B40F080509063012082F8340010BD7B
:103BC0006C20805AC0F3803001F8190F6C20805AA5
:103BD000C0F3C61048706C20805C00F07F008870D5
:103BE000106FC00FC870106FC0F341700871106F74
:103BF000C0F382604871106FC0F383508871106FFA
:103C0000C0F34050C87100200872106FC0F300402C
:103C100048727020805AC0F3C03088727020805A79
:103C2000C0F38030C8727020805AC0F340300873EF
:103C30007020805AC0F3003048737020805AC0F35F
:103C4000812088737020805AC0F30120C8737020CF
:103C5000805CC0F3460008740120487419390020C4
:103C6000ADE70000FF0540000246506C0860906C14
:103C70004860D06C8860106DC860506D0861906DB0
:103C80004861D06D8861106EC86100207047F8B53A
:103C90000446002000906946204602F047FB054696
:103CA00015B1A06B2843A0630098C0F343263046AB
:103CB000F8BD10B504460CB9012010BD94F83400CD
:103CC00020B900202077204600F068F8032084F80F
:103CD0003400204600F00CF808B10120EDE7002088
:103CE000A0632063012084F834000020E5E7000091
:103CF00070B58AB0044600200490059006900790A5
:103D000008907620099007A807C88DE8070020686A
:103D100004A90EC901F087FD064616B101200AB0BC
:103D200070BD00201B490860206801F096FD01204D
:103D30001849A039C1F8A000204602F091FA0546C2
:103D40003DB1012084F83400A06B2843A06301201A
:103D5000E5E7204602F003FA05463DB1012084F86C
:103D60003400A06B2843A0630120D8E74FF4007112
:103D7000206801F0D3FD05464DB1074821688863EE
:103D8000A06B2843A063012084F83400C7E700201B
:103D9000C5E70000A0003042FF05400010B586B026
:103DA000044600200290039004900590304920685A
:103DB00088425BD100BF2F48406940F480602D49A4
:103DC00048610846406900F48060019000BF00BF70
:103DD00000BF0846806940F010008861084680698D
:103DE00000F01000019000BF00BF00BF08468069CE
:103DF00040F0200088610846806900F020000190B2
:103E000000BF00BF4FF4F85002900220039003203F
:103E1000059002A91848FEF733FB04200290022007
:103E200003900320059002A91448FEF729FB1448CB
:103E300014490860102048600021124881608021E8
:103E4000C160890001618900416100218161C16116
:103E5000FDF70AFF08B1FDF777F800BF09482064B5
:103E6000446200BF00BFE063446200BF06B010BD03
:103E70000080014000100240001001400014014089
:103E800044040240E07800202DE9FF4F89B0044649
:103E90008B469946DDF858A0FEF7A0FC02900B98DF
:103EA00000905D46BBF1000F07D1A06B40F00060B1
:103EB000A06301200DB0BDE8F08F94F83400012814
:103EC0007ED10020A063009800EB0901E06D8142E3
:103ED00005D9A06B40F00070A0630120EAE7032041
:103EE00084F8340000202168C862606C012802D088
:103EF0000098400200904FF0FF3003904FEA4920B5
:103F00000490902005900220069000200790012048
:103F1000089003A9206801F061FCB9F1010F07D9ED
:103F2000022020632068009901F060FD804606E0D1
:103F3000012020632068009901F074FD8046B8F1EB
:103F4000000F0DD0754821688863A06B40EA080017
:103F5000A063012084F83400002020630120A9E739
:103F6000049E3AE02068406B00F40040E0B1DEB10E
:103F70000020019015E0206801F078FC07462F70C2
:103F80006D1C761E380A28706D1C761E380C287041
:103F90006D1C761E380E28706D1C761E0198401C14
:103FA000019001980828E6D3FEF718FC0299401A00
:103FB000504502D2BAF1000F0FD15848216800E0F5
:103FC000A6E08863A06B40F00040A063012084F865
:103FD00034000020206303206CE72068406B40F22F
:103FE0002A3108400028BDD02068406B00F4807062
:103FF000D0B1B9F1010F17D9606C032814D0206833
:1040000001F0D0FD8046B8F1000F0DD04348216883
:104010008863A06B40EA0800A063012084F83400A4
:1040200000202063012045E72068406B00F0080075
:1040300068B13A4821688863A06B40F00800A0632B
:10404000012084F8340000202063012032E720683A
:10405000406B00F0020068B1304821688863A06BB3
:1040600040F00200A063012084F8340000202063A7
:1040700001201FE72068406B00F0200068B127484E
:1040800021688863A06B40F02000A063012084F8C1
:1040900034000020206301200CE729E0206801F0B3
:1040A000E5FB07462F706D1C761E380A28706D1CC4
:1040B000761E380C28706D1C761E380E28706D1C0C
:1040C000761EFEF78BFB0299401A504502D2BAF1D8
:1040D000000F0DD1114821688863A06B40F00040AB
:1040E000A063012084F83400002020630120E1E671
:1040F0002068406B00F4001008B1002ECED140F2D1
:104100003A5021688863012084F834000020D1E609
:10411000A06B40F00050A0630120CBE6FF054000FB
:104120002DE9F04F89B00446894693469846FEF73C
:1041300055FB0290DA464D46B9F1000F07D1A06B4E
:1041400040F00060A063012009B0BDE8F08F94F852
:10415000340001287ED10020A0630AEB0801E06D45
:10416000814205D9A06B40F00070A0630120EBE70D
:10417000032084F8340000202168C862606C0128A4
:1041800001D04FEA4A2A4FF0FF3003904FEA48200F
:104190000490902005900020069007900120089040
:1041A00003A9206801F01AFBB8F1010F07D92020FC
:1041B00020635146206801F013FD064606E01020FA
:1041C00020635146206801F027FD064666B15F482E
:1041D00021688863A06B3043A063012084F8340019
:1041E000002020630120AFE7049F43E02068406B7C
:1041F00000F4804030B32FB3002001901FE02878F6
:1042000000906D1C7F1E2878009941EA00200090E4
:104210006D1C7F1E2878009941EA004000906D1CBB
:104220007F1E2878009941EA006000906D1C7F1E77
:104230006946206801F032FB0198401C019001980A
:104240000828DCD3FEF7CAFA0299411A1298814273
:1042500003D200E074E0129860B93C48216888639A
:10426000A06B3043A063012084F834000020206359
:10427000032069E72068406B40F21A3108400028AB
:10428000B4D02068406B00F48070B8B1B8F1010F71
:1042900014D9606C032811D0206801F083FC064615
:1042A00066B12A4821688863A06B3043A06301206F
:1042B00084F8340000202063012045E72068406B2B
:1042C00000F0080068B1214821688863A06B40F0C5
:1042D0000800A063012084F834000020206301203E
:1042E00032E72068406B00F0020068B1174821688F
:1042F0008863A06B40F00200A063012084F83400C2
:104300000020206301201FE72068406B00F01000B0
:1043100068B10E4821688863A06B40F01000A0636C
:10432000012084F834000020206301200CE740F2D3
:104330003A5021688863012084F83400002003E7A4
:10434000A06B40F00050A0630120FDE6FF05400097
:1043500070B504460E4615461CB1A069B0F5807FC5
:1043600001D1012070BD94F8410028B9002084F8E3
:104370004000204600F01FF804F108012068FCF717
:1043800039FE3146A2682068FCF770FE2946236B8F
:10439000D4E90102FCF70CFEA168206850F8210066
:1043A00040F00100A268216841F82200012084F851
:1043B00041000020D6E710B50446FEF713F810BD03
:1043C00070B504462546681EB0F1807F01D30120F8
:1043D0000FE0681E4FF0E02148610F214FF0FF30E1
:1043E00002F01AFD00204FF0E021886107200861EB
:1043F000002070BD7047704730B502460B4600BFC5
:1044000092F83C00012801D1022030BD012082F841
:104410003C0000BF022082F83D001068446810682C
:10442000816824F070041868044310684460144DD7
:104430001068A84213D0134D1068A8420FD010681E
:10444000B0F1804F0BD0104D1068A84207D00F4D2F
:104450001068A84203D00E4D1068A84205D121F083
:1044600080015868014310688160012082F83D0096
:1044700000BF002082F83C0000BF00BFC5E700007D
:10448000002C0140003401400004004000080040BE
:10449000000C004010B504460CB9012010BD94F882
:1044A0003D0028B9002084F83C00204600F026F8A2
:1044B000022084F83D00211D206802F0DDF8012073
:1044C00084F8460000BF84F83E0001213F200155DA
:1044D000402001554120015500BF00BF012084F854
:1044E000420043200155442001554520015500BF9D
:1044F000012084F83D000020D0E7000038B50446D4
:104500002068B0F1804F15D100BF0B48C06940F062
:1045100001000949C8610846C06900F00100009027
:1045200000BF00BF002211461C20FEF769FD1C20C1
:10453000FEF756FD38BD000000100240014691F81C
:104540003D00012801D001207047022081F83D0084
:104550000868C06840F001000B68D860164B086816
:10456000984213D0154B086898420FD00868B0F1F4
:10457000804F0BD0124B0868984207D0114B086847
:10458000984203D0104B086898420CD108688068A4
:1045900000F00702062A0CD00868006840F001000D
:1045A0000B68186005E00868006840F001000B68BF
:1045B00018600020C8E70000002C014000340140D2
:1045C0000004004000080040000C00402DE9F041CC
:1045D00004460D4600BF94F83C00012802D1022099
:1045E000BDE8F081012084F83C0000BF022084F87F
:1045F0003D002068866826F0770626F47F4620680E
:1046000086602868502833D00CDC202850D004DC89
:1046100000284BD0102851D149E0302849D04028FB
:104620004CD139E060282DD0702807D0B0F5805FDC
:1046300003D0B0F5005F41D10DE040E0D5E90213B1
:104640006A68206802F066F82068866846F0770697
:104650002068866033E0D5E902136A68206802F0BA
:1046600059F82068806840F480402168886026E01E
:10467000EA686968206802F061F85021206802F059
:1046800054F81CE0EA686968206802F06AF8602162
:10469000206802F04AF812E0EA686968206802F0CF
:1046A0004DF84021206802F040F808E000BF00BF4C
:1046B00000BF2968206802F038F800E000BF00BFA2
:1046C000012084F83D0000BF002084F83C0000BFBA
:1046D00000BF85E7704710B5044620680069C0F345
:1046E0004000D8B12068C068C0F34000B0B16FF09E
:1046F000020021680861012020772068806900F0AD
:10470000030018B12046FFF7E5FF05E0204600F062
:10471000ADF8204600F0ABF8002020772068006953
:10472000C0F38000D8B12068C068C0F38000B0B189
:104730006FF00400216808610220207720688069FA
:1047400000F4407018B12046FFF7C4FF05E0204692
:1047500000F08CF8204600F08AF8002020772068CE
:104760000069C0F3C000D8B12068C068C0F3C000C1
:10477000B0B16FF00800216808610420207720683C
:10478000C06900F0030018B12046FFF7A3FF05E061
:10479000204600F06BF8204600F069F800202077F2
:1047A00020680069C0F30010D8B12068C068C0F369
:1047B0000010B0B16FF01000216808610820207768
:1047C0002068C06900F4407018B12046FFF782FFEE
:1047D00005E0204600F04AF8204600F048F80020A6
:1047E00020772068006900F0010058B12068C06897
:1047F00000F0010030B16FF001002168086120462F
:1048000000F036F820680069C0F3C01058B1206885
:10481000C068C0F3C01030B16FF08000216808613B
:104820002046FFF7E7FD20680069C0F3801058B10B
:104830002068C068C0F3801030B16FF0400021687C
:104840000861204600F015F820680069C0F34010A8
:1048500058B12068C068C0F3401030B16FF020003C
:10486000216808612046FFF7C6FD10BD70477047FC
:104870007047704710B504460CB9012010BDA069FF
:1048800000B100E000BF94F83D0028B9002084F892
:104890003C00204600F028F8242084F83D002068E1
:1048A000C06820F400502168C860204601F06EFF07
:1048B0002068006920F49040216808612068406900
:1048C00020F02A00216848612068C06840F4005048
:1048D0002168C86000202064202084F83D0084F80E
:1048E0003E000020CAE7000010B586B00446002054
:1048F00002900390049005901A49206888422ED1B6
:1049000000BF1948806940F4804017498861084613
:10491000806900F48040019000BF00BF00BF0846DE
:10492000806940F0040088610846806900F0040056
:10493000019000BF00BF48150290022003900320A1
:10494000059002A90948FDF79BFD4FF48060029095
:1049500000200390049002A90448FDF791FD06B0E1
:1049600010BD000000380140001002400008014066
:104970002DE9F84F04460E46174699464FF0000AB7
:1049800094F83D0020285AD106B117B90120BDE89E
:10499000F88F00BF94F83C00012801D10220F6E70F
:1049A000012084F83C0000BF00202064212084F80E
:1049B0003D00FDF713FF8246A784E784A068B0F5A9
:1049C000805F04D1206910B90025B04602E0354669
:1049D0004FF0000800BF002084F83C0000BF1BE03F
:1049E0005346002280212046CDF8009001F04CFF74
:1049F00008B10320CBE745B9B8F80000C0F30800C0
:104A00002168486008F1020803E0287821684860BE
:104A10006D1CE08C401EE084E08C0028E0D1534601
:104A2000002240212046CDF8009001F02DFF08B172
:104A30000320ACE7202084F83D000020A7E70220F7
:104A4000A5E700BFFEE7014608684069C0F3802083
:104A5000B0B16FF480600A685061002008632020C4
:104A600081F83D00002081F83E00086C40F0040011
:104A7000086400BF002081F83C0000BF012070479F
:104A80000020FCE72DE9F84304460D4617469846FA
:104A9000E66A082E04D0012E02D016F5803F06D11A
:104AA0002068006840F480702168086008E0206B8E
:104AB000122805D12068006840F4807021680860E1
:104AC0003B4600224FF001112046CDF8008000F057
:104AD00067F860B12068006800F48070B0F5807FEE
:104AE00002D14FF4007020640320BDE8F8832069F0
:104AF000B0F5804F04D105F0FE002168086112E096
:104B000005F44070F02141EAE01021680861434655
:104B10003A460B49204600F086F808B10120E4E748
:104B2000E8B22168086143463A460549891F204694
:104B300000F079F808B10120D7E70020D5E70000A0
:104B40000800010070B504460D46164620E02046D8
:104B5000FFF779FF08B1012070BD681CC0B1FDF7F7
:104B60003DFE801BA84200D895B90020206320207C
:104B700084F83D00002084F83E00206C40F02000C6
:104B8000206400BF002084F83C0000BF0120E3E760
:104B900020684069C0F380000028D8D00020DBE7FF
:104BA0002DE9F04104460D4617461E46DDF81880F3
:104BB0001CE0701CD0B1FDF711FEA0EB0800B04264
:104BC00000D89EB900202063202084F83D000020FA
:104BD00084F83E00206C40F02000206400BF0020DC
:104BE00084F83C0000BF0120BDE8F081C5F3074018
:104BF00001280AD120684069A9B20840A9B28842B8
:104C000001D101200BE0002009E020688069A9B2F1
:104C10000840A9B2884201D1012000E00020B8423A
:104C2000C7D00020E0E72DE9F04104460D461646C6
:104C30001F463DE020684069C0F38020E8B120684D
:104C4000006840F40070216808606FF4806021689B
:104C5000486100202063202084F83D00002084F873
:104C60003E00206C40F00400206400BF002084F867
:104C70003C0000BF0120BDE8F081701CC0B1FDF711
:104C8000ADFDC01BB04200D896B9002020632020A3
:104C900084F83D00002084F83E00206C40F02000A5
:104CA000206400BF002084F83C0000BF0120E2E740
:104CB000C5F3074001280AD120684069A9B208401D
:104CC000A9B2884201D101200BE0002009E0206850
:104CD0008069A9B20840A9B2884201D1012000E050
:104CE00000200028A6D00020C5E770B504460D4678
:104CF000164620E02046FFF7A6FE08B1012070BD51
:104D0000681CC0B1FDF76AFD801BA84200D895B9A8
:104D100000202063202084F83D00002084F83E001D
:104D2000206C40F02000206400BF002084F83C008C
:104D300000BF0120E3E720684069C0F3C0100028ED
:104D4000D8D00020DBE72DE9F04104460E46174697
:104D50001D46FDF743FD804613E0681C88B1FDF752
:104D60003DFDA0EB0800A84200D255B9012084F80F
:104D7000350000BF002084F8340000BF0320BDE8E8
:104D8000F081206880683040B04201D1012000E00D
:104D90000020B842E1D10020F1E7000010B5044640
:104DA00034B100224FF480510448FDF711FD04E0B6
:104DB000012211030148FDF70BFD10BD0014014055
:104DC0002DE9F04106460F4614461D46DDF81880D1
:104DD0002B4622463946304600F032F904FB05F0F6
:104DE000414600F00AF9BDE8F08100002DE9F047E6
:104DF000804689461546A5F1200000F0FF0A1023E1
:104E000008224946404600F01BF92C2000F072FAB7
:104E1000002417E00D4800EB0A10065D00270DE0A6
:104E200006F0010018B11F2000F068FA03E04FF609
:104E3000FF7000F063FA7610781CC7B2082FEFDB22
:104E4000601CC4B2102CE5DBBDE8F08776A4000836
:104E500070B506460C461546F02E0CDAB4F5A07F68
:104E600009DA01231A462146304600F0E9F82946BE
:104E7000012000F0C2F870BD2DE9FF4F84B08146DB
:104E80008A464FF0000B002000900698A0EB090521
:104E90000798A0EB0A06CDF80890CDF804A0002DE5
:104EA00001DD012705E00DB9002702E04FF0FF37D3
:104EB0006D42002E02DD4FF0010806E016B94FF0FA
:104EC000000802E04FF0FF387642B54201DD2C4683
:104ED00000E03446002003901EE0119ADDE9011045
:104EE000FFF7B6FFAB44009830440090A34505DDC2
:104EF000ABEB040B0298384480B202900098A042B9
:104F000006DD0098001B00900198404480B201909B
:104F10000398401C80B20390611C03988842DCDD3A
:104F200008B0BDE8F08F2DE9F84304460D4616465B
:104F30001F46DDE90898B9F1000F0BD03B46324619
:104F40002946204600F07CF806FB07F0414600F0B9
:104F500054F82FE0A019401E82B22B462946204665
:104F6000CDF80080FFF788FFE819401E83B2A01932
:104F7000401E82B2E819401E81B22046CDF8008062
:104F8000FFF77AFFE819401E83B2224629462046E1
:104F9000CDF80080FFF770FFE919491E8BB2A11907
:104FA000491E8AB2A119491E88B22946CDF800804F
:104FB000FFF762FFBDE8F88370B505460E4614465C
:104FC00017E028460830F02803DD002506F1100020
:104FD00086B230461030B0F5A07F01DD00250026F6
:104FE000227831462846FFF701FF641C05F10800CE
:104FF00085B220780028E4D170BD10B502460B467A
:1050000000242C2000F076F900BF03E0184600F0E1
:1050100075F9641C9442F9D310BD08B50120FFF75F
:10502000BDFE00F051F900F037F84FF6FF704FF475
:10503000A073F022002100900846FFF7C1FE08BDD2
:1050400030B504460D462A2000F054F9201200F035
:1050500055F9E0B200F052F9A118491EC1F30F2032
:1050600000F04CF9A118491EC8B200F047F92B20F6
:1050700000F040F9281200F041F9E8B200F03EF9E2
:10508000E918491EC1F30F2000F038F9E918491E4C
:10509000C8B200F033F930BD00B5CF2000F02AF9D6
:1050A000002000F02BF9812000F028F9302000F0DA
:1050B00025F9ED2000F01EF9642000F01FF903200F
:1050C00000F01CF9122000F019F9812000F016F907
:1050D000E82000F00FF9852000F010F9102000F012
:1050E0000DF9782000F00AF9CB2000F003F93920FF
:1050F00000F004F92C2000F001F9002000F0FEF887
:10510000342000F0FBF8022000F0F8F8F72000F05F
:10511000F1F8202000F0F2F8EA2000F0EBF800208F
:1051200000F0ECF8002000F0E9F8B12000F0E2F81F
:10513000002000F0E3F81B2000F0E0F8B62000F0BB
:10514000D9F80A2000F0DAF8A22000F0D7F8C02041
:1051500000F0D0F8352000F0D1F8C12000F0CAF8F6
:10516000112000F0CBF8C52000F0C4F8452000F075
:10517000C5F8452000F0C2F8C72000F0BBF8A22017
:1051800000F0BCF8F22000F0B5F8002000F0B6F80E
:10519000262000F0AFF8012000F0B0F8E02000F089
:1051A000A9F80F2000F0AAF8262000F0A7F8242084
:1051B00000F0A4F80B2000F0A1F80E2000F09EF8FB
:1051C000092000F09BF8542000F098F8A82000F087
:1051D00095F8462000F092F80C2000F08FF8172088
:1051E00000F08CF8092000F089F80F2000F086F814
:1051F000072000F083F8002000F080F8E12000F0A4
:1052000079F8002000F07AF8192000F077F81B20D8
:1052100000F074F8042000F071F8102000F06EF82F
:10522000072000F06BF82A2000F068F8472000F013
:1052300065F8392000F062F8032000F05FF80620DE
:1052400000F05CF8062000F059F8302000F056F825
:10525000382000F053F80F2000F050F8362000F00E
:1052600049F8C82000F04AF82A2000F043F800204E
:1052700000F044F8002000F041F8002000F03EF873
:10528000EF2000F03BF82B2000F034F8002000F075
:1052900035F8002000F032F8012000F02FF83F2010
:1052A00000F02CF83A2000F025F8552000F026F800
:1052B000112000F01FF80348FBF727FE292000F01B
:1052C00019F800BDFCBF020010B5002202210748FA
:1052D000FDF77EFA0648FBF718FE0122022103487B
:1052E000FDF776FA0248FBF710FE10BD00180140EA
:1052F000FCBF02004FF0C0410880704701490880A0
:1053000070470000000002600EB500200090019080
:10531000029013481349086000211248816001215E
:105320000173002101754FF46021C16100200D4916
:10533000486001210B480161FCF75EF808B1FBF7FA
:1053400003FE0E200090012001900020029069468B
:105350000448FBF79DFF08B1FBF7F6FD0EBD00000A
:10536000002401406C7700200EB5002000900190D1
:1053700002901348134908600021124881600121FE
:105380000173002101754FF46021C16100200D49B6
:10539000486001210B480161FCF72EF808B1FBF7CA
:1053A000D3FD022000900120019000200290694668
:1053B0000448FBF76DFF08B1FBF7C6FD0EBD00000A
:1053C000002801409C77002008B500BF1D484069B7
:1053D00040F002001B4948610846406900F00200A5
:1053E000009000BF00BF00BF0846406940F00100C8
:1053F00048610846406900F00100009000BF00BF0E
:105400001148124908604FF48040486040210F481D
:1054100081600021C1604FF48071016189004161A8
:1054200000218161C161FCF71FFC08B1FBF78CFD15
:10543000002211463B20FDF7E3FD3B20FDF7D0FDA8
:1054400008BD00000010024008000240B0790020B2
:1054500010B503490348FBF778FD0349087010BDF8
:105460003D7700202CAB00083C77002000B587B0CA
:105470001C216846FAF7A1FE4FF020401A49086047
:105480001A4848600020886000211748C160016107
:105490001021416100218161C161016241624FF4CB
:1054A000805181620021C1620163416381630F20E9
:1054B00000900190012002900F2003901020049092
:1054C0001120059000200690002269460648FEF74C
:1054D0003FFF08B1FBF738FD0548C06940F4806024
:1054E0000349C86107B000BDF4790020040100A0A1
:1054F0000000014000B585B00020019002900390AB
:10550000049000BF5348806940F0400051498861D1
:105510000846806900F04000009000BF00BF00BF57
:105520000846806940F0100088610846806900F0F4
:105530001000009000BF00BF00BF0846806940F027
:10554000040088610846806900F00400009000BFF4
:1055500000BF00BF0846806940F008008861084627
:10556000806900F00800009000BF00BF00BF08463F
:10557000806940F0200088610846806900F02000C2
:10558000009000BF00BF002207213348FDF720F93B
:10559000012223213148FDF71BF900224FF440512D
:1055A0002F48FDF715F907200190012002900020F7
:1055B00003900320049001A92748FCF761FF08200D
:1055C0000190002002900120039001A92248FCF7DD
:1055D00057FF10200190234802900120039001A959
:1055E0001D48FCF74DFF4FF4005001900020029041
:1055F000039001A91C48FCF743FF01200190002003
:105600000290039001A91948FCF73AFF232001906A
:1056100001200290002003900320049001A90F486C
:10562000FCF72EFF4FF44050019001200290002023
:1056300003900320049001A90948FCF721FF0022F0
:1056400011460A20FDF7DCFC0A20FDF7C9FC05B075
:1056500000BD00000010024000180140000C014095
:10566000001401400000211000100140000801401A
:1056700010B50B480B4908600B48486000210948E9
:105680008160C1604FF4804101610021416181610D
:10569000C1610162FDF7A8F808B1FBF755FC10BD28
:1056A00000580040CC770020A086010010B50B48C0
:1056B0000B49086040154860002109488160C160BD
:1056C0004FF4007101614FF4FA5141610021816191
:1056D000FDF766FA08B1FBF737FC10BD0038004053
:1056E0002078002006480749086000204860002113
:1056F00004488160C160016141610421816170479A
:10570000008001405C78002000B587B00020039045
:10571000049005900690019002904FF0804014494B
:10572000086042F2107048600021114881609021A9
:10573000C160002101618161FEF7ACFE08B1FBF799
:1057400003FC4FF48050039003A90948FEF73EFF85
:1057500008B1FBF7F9FB00200190029001A9044871
:10576000FEF74AFE08B1FBF7EFFB07B000BD0000F3
:105770002479002010B50B480B4908604FF4E13044
:105780004860002108488160C16001610C214161CD
:1057900000218161C161FFF76DF808B1FBF7D4FB0F
:1057A00010BD0000003801406C79002000BFFEE70A
:1057B0007047704708B508490968C9084FF47A72FC
:1057C000B1FBF2F14143009100BF00BF00994A1EB6
:1057D00000920029F9D108BD4C77002010B502468F
:1057E00000230868506248689062D1E902042043AF
:1057F0000C6920434C6920430343D06A20F0F70032
:105800001843D062002010BD01460869C0B270473D
:105810000146086800F003007047024602F11400D8
:105820004318186870470FB410B504460021DDE92D
:1058300003021043059A1043069A1043079A104337
:10584000089A10430143606847F6FF62904308439B
:105850006060002010BC5DF814FB10B50446032006
:1058600020600220FCF7AAFD002010BD0146D1F8FF
:105870008000704710B50246002308689060D1E9A7
:1058800001042043CC6820430C6920430343D068C3
:105890006FF30B001843D060002010BD024608686B
:1058A000C2F880000020704770B586B005460C46EF
:1058B00001943720029040200390002004904FF480
:1058C0008060059001A92846FFF7D4FF41F2883295
:1058D0003721284600F0DCF90646304606B070BD98
:1058E00070B586B005460C460B4820430190292030
:1058F000029040200390002004904FF480600590B7
:1059000001A92846FFF7B6FF284600F0C9FA064667
:10591000304606B070BD00000000108070B586B043
:1059200005460C4601941020029040200390002070
:1059300004904FF48060059001A92846FFF79AFF74
:1059400041F288321021284600F0A2F9064630467E
:1059500006B070BD70B586B005460C4601940620B1
:10596000029040200390002004904FF48060059046
:1059700001A92846FFF77EFF41F28832062128461A
:1059800000F086F90646304606B070BD30B585B0E9
:105990000446002000900190029003904FF4806034
:1059A000049069462046FFF765FF204600F050F955
:1059B0000546284605B030BD30B585B004464FF4E5
:1059C000D5700090082001904020029000200390A4
:1059D0004FF48060049069462046FFF74BFF204655
:1059E00000F0E6FA0546284605B030BD70B586B031
:1059F00005460C460194122002904020039000209E
:105A000004904FF48060059001A92846FFF732FF0B
:105A100041F288321221284600F03AF90646304613
:105A200006B070BD70B586B005460C4601941120D5
:105A3000029040200390002004904FF48060059075
:105A400001A92846FFF716FF41F2883211212846A6
:105A500000F01EF90646304606B070BDF0B585B0C0
:105A6000064614461D4600940720019040200290EF
:105A7000002003904FF48060049069463046FFF7A1
:105A8000F9FE41F288320721304600F001F907465D
:105A9000384605B0F0BD30B585B004460020009012
:105AA00002200190C0200290002003904FF48060FB
:105AB000049069462046FFF7DDFE204600F0BEF95F
:105AC0000546284605B030BD70B586B005460C4683
:105AD000019409200290C0200390002004904FF40C
